:020000040000fa
:080000000002040000000000f2
:020000040000fa
:04000800fa020000f8
:020000040000fa
:04000c000c030000e1
:020000040000fa
:0400100024030000c5
:020000040000fa
:0400140002030000e3
:020000040000fa
:0400180014030000cd
:020000040000fa
:04001c001c030000c1
:020000040000fa
:040020002c030000ad
:020000040000fa
:040024009203000043
:020000040000fa
:04002800920300003f
:020000040000fa
:04002c00920300003b
:020000040000fa
:040030009203000037
:020000040000fa
:040034003403000091
:020000040000fa
:04003800920300002f
:020000040000fa
:04003c00920300002b
:020000040000fa
:040040009203000027
:020000040000fa
:040044006403000051
:020000040000fa
:04004800920300001f
:020000040000fa
:04004c00920300001b
:020000040000fa
:040050009203000017
:020000040000fa
:040054009203000013
:020000040000fa
:04005800920300000f
:020000040000fa
:04005c00920300000b
:020000040000fa
:040060009203000007
:020000040000fa
:040064009203000003
:020000040000fa
:0400680092030000ff
:020000040000fa
:04006c0092030000fb
:020000040000fa
:0400700092030000f7
:020000040000fa
:0400740092030000f3
:020000040000fa
:0400780092030000ef
:020000040000fa
:04007c0092030000eb
:020000040000fa
:0400800092030000e7
:020000040000fa
:0400840092030000e3
:020000040000fa
:0400880092030000df
:020000040000fa
:04008c0092030000db
:020000040000fa
:0400900092030000d7
:020000040000fa
:0400940092030000d3
:020000040000fa
:0400980092030000cf
:020000040000fa
:04009c0092030000cb
:020000040000fa
:0400a00092030000c7
:020000040000fa
:0400a40092030000c3
:020000040000fa
:0400a80092030000bf
:020000040000fa
:0400ac0092030000bb
:020000040000fa
:0400b00092030000b7
:020000040000fa
:0400b40092030000b3
:020000040000fa
:0400b80092030000af
:020000040000fa
:0400bc0092030000ab
:020000040000fa
:0400c00092030000a7
:020000040000fa
:0400c40092030000a3
:020000040000fa
:0400c800920300009f
:020000040000fa
:0400cc00920300009b
:020000040000fa
:0400d0009203000097
:020000040000fa
:0400d4009203000093
:020000040000fa
:0400d800920300008f
:020000040000fa
:0400dc00920300008b
:020000040000fa
:0400e0009203000087
:020000040000fa
:0400e4009203000083
:020000040000fa
:0400e800920300007f
:020000040000fa
:0400ec00920300007b
:020000040000fa
:0400f0009203000077
:020000040000fa
:0400f4009203000073
:020000040000fa
:0400f800920300006f
:020000040000fa
:0400fc00920300006b
:020000040000fa
:040100009203000066
:020000040000fa
:040104009203000062
:020000040000fa
:04010800920300005e
:020000040000fa
:04010c00920300005a
:020000040000fa
:040110009203000056
:020000040000fa
:040114009203000052
:020000040000fa
:04011800920300004e
:020000040000fa
:04011c00920300004a
:020000040000fa
:040120009203000046
:020000040000fa
:040124009203000042
:020000040000fa
:04012800920300003e
:020000040000fa
:04012c00920300003a
:020000040000fa
:040130009203000036
:020000040000fa
:040134009203000032
:020000040000fa
:04013800920300002e
:020000040000fa
:04013c00920300002a
:020000040000fa
:040140009203000026
:020000040000fa
:040144009203000022
:020000040000fa
:04014800920300001e
:020000040000fa
:04014c00920300001a
:020000040000fa
:040150009203000016
:020000040000fa
:040154009203000012
:020000040000fa
:04015800920300000e
:020000040000fa
:04015c00920300000a
:020000040000fa
:040160009203000006
:020000040000fa
:040164009203000002
:020000040000fa
:0401680092030000fe
:020000040000fa
:04016c0092030000fa
:020000040000fa
:0401700092030000f6
:020000040000fa
:0401740092030000f2
:020000040000fa
:0401780092030000ee
:020000040000fa
:04017c0092030000ea
:020000040000fa
:0401800092030000e6
:020000040000fa
:0401840092030000e2
:020000040000fa
:0401880092030000de
:020000040000fa
:04018c0092030000da
:020000040000fa
:0401900092030000d6
:020000040000fa
:0401940092030000d2
:020000040000fa
:0401980092030000ce
:020000040000fa
:04019c0092030000ca
:020000040000fa
:0401a00092030000c6
:020000040000fa
:0401a40092030000c2
:020000040000fa
:0401a80092030000be
:020000040000fa
:0401ac0092030000ba
:020000040000fa
:0401b00092030000b6
:020000040000fa
:0401b40092030000b2
:020000040000fa
:0401b80092030000ae
:020000040000fa
:0401bc0092030000aa
:020000040000fa
:0401c00092030000a6
:020000040000fa
:0401c40092030000a2
:020000040000fa
:0401c800920300009e
:020000040000fa
:0401cc00920300009a
:020000040000fa
:0401d0009203000096
:020000040000fa
:0401d4009203000092
:020000040000fa
:0401d800920300008e
:020000040000fa
:0401dc00920300008a
:020000040000fa
:0401e0009203000086
:020000040000fa
:0401e4009203000082
:020000040000fa
:0401e800920300007e
:020000040000fa
:0401ec00920300007a
:020000040000fa
:0401f0009203000076
:020000040000fa
:0401f4009203000072
:020000040000fa
:0401f800920300006e
:020000040000fa
:0401fc00920300006a
:020000040000fa
:040200009203000065
:020000040000fa
:040204009203000061
:020000040000fa
:04020800920300005d
:020000040000fa
:04020c009203000059
:020000040000fa
:040210009203000055
:020000040000fa
:040214009203000051
:020000040000fa
:04021800920300004d
:020000040000fa
:04021c009203000049
:020000040000fa
:040220009203000045
:020000040000fa
:040224009203000041
:020000040000fa
:04022800920300003d
:020000040000fa
:04022c009203000039
:020000040000fa
:040230009203000035
:020000040000fa
:040234009203000031
:020000040000fa
:04023800920300002d
:020000040000fa
:04023c009203000029
:020000040000fa
:040240009203000025
:020000040000fa
:040244009203000021
:020000040000fa
:04024800920300001d
:020000040000fa
:04024c009203000019
:020000040000fa
:040250009203000015
:020000040000fa
:040254009203000011
:020000040000fa
:04025800920300000d
:020000040000fa
:04025c009203000009
:020000040000fa
:040260009203000005
:020000040000fa
:040264009203000001
:020000040000fa
:0402680092030000fd
:020000040000fa
:04026c0092030000f9
:020000040000fa
:0402700092030000f5
:020000040000fa
:0402740092030000f1
:020000040000fa
:0402780092030000ed
:020000040000fa
:04027c0092030000e9
:020000040000fa
:0402800092030000e5
:020000040000fa
:100400008f0321000eff2c000e0188000000000069
:10041000000020000000e000020032000001200087
:100420002002880014000700c00007000000e00060
:1004300003003a0020c7200001002000020037001e
:100440000000200001002000810f70000100320038
:100450000f000700000020000000e0000200320052
:10046000000002000000000034070200000000004d
:100470000040da000000fe00200020000000e00044
:1004800002003200100020009001880000000600e9
:10049000a1028800800478000000eb001f003700f4
:1004a000e284440054a0b4009905ba00e2844400f8
:1004b00054a0b4009906ba00e284440054a0b400e9
:1004c0000006eb00476fde00fd07b200ae018800ba
:1004d000636ce10003003a000ad801000000eb0061
:1004e0000e003700606ce10008003a00004deb00a0
:1004f0000a05e800020039003420ec000af0a000f0
:100500008b05e900f9ff3e00040037006168e10057
:10051000010032000086eb000b00070019c7ba008b
:100520000e04e0001905ba0003003a000a00e000da
:10053000dbff3a0000000600fe07b200ae028800b2
:100540008a047800f5ff37000cd0a300e20f4d00bd
:100550001c00390089027800354dba000a05e80010
:10056000020039003420ec000af0a0008b05e900fd
:100570000f003200254dba000a05e80002003900dc
:100580003420ec000af0a0008b05e90008003200de
:100590000c00e0000600320015cdba000a05e800a4
:1005a000020039003420ec000af0a0008b05e900bd
:1005b0008984e80054a0b4000b00e000e2ff3a0098
:1005c000000006009902ba00055d78008b05e9007d
:1005d000f7ff3200c82ade00055d78008b05e900d0
:1005e000f3ff32000c00e000f1ff320019ddba0029
:1005f000eeff37003600f800c028a9000000eb002d
:10060000f00407003600f800f2040700c048a90013
:1006100010002000eb0407003600f800c068a900b5
:1006200020002000e70407003600f800c088a90079
:1006300030002000e30407003600f800c0a8a9003d
:1006400040002000df0407003600f800c608a900bb
:1006500070002000db0407003600f800c488a90001
:10066000a0002000d70407003600f800809fbe00dd
:10067000829fbe00849fbe00869fbe000000fa00dd
:100680007c0307003104070050032100104078006c
:100690008040e80050032100014878004003210019
:1006a00011c0b300014878000068a9000080fa007a
:1006b0004f03be004f02be004f01be004f00be0000
:1006c0003600f900004006003600f800809fbe00aa
:1006d000829fbe00849fbe00869fbe000000fa007d
:1006e000b203070070032100104078008040e8004a
:1006f00070032100014878006003210011c0b3009d
:100700000148780000e8a9000080fa004f03be000d
:100710004f02be004f01be004f00be003600f90080
:10072000004006000040da000000fe000000050066
:10073000839f68000100e00002003d00600010009f
:10074000e08018000300e00002003d00600111009d
:10075000e0811900050007004f00e00002003b00a7
:1007600060001000e0801800000006006022b80061
:10077000060220000000d0008180d2000482d20056
:100780008582d2000000a0000202520083825a003b
:10079000030031000202420083824a000000a100ef
:0c07a0000603e900f3ff3a000000060029
:020000040000fa
:1007ac000000fa0000062000101288004422ef001e
:1007bc00c0002800001288000080fa00000006002b
:1007cc000600fa00100798002107980000000000ae
:1007dc0000128000620060000000e000fcff3a00a4
:1007ec001e009000104078000080fb004012880032
:1007fc000000000001128000000220000080600058
:10080c000000e000fbff3a000000eb00000f780056
:10081c00010037001e0fe800705720009e00780082
:10082c00808f5000fbff3400f00f20004012880036
:10083c000000000000128000620060000000e00078
:10084c00fcff3a0040128000804078002e0090009f
:10085c0001487800f00f2000401288000000eb00e7
:10086c00000f7800010037001e0fe80070252000f3
:10087c009e007800808f5000fbff34000080fa004f
:10088c00000006001800fa00100f9800210f9800c5
:10089c00320f98000000eb00000f78000000eb0016
:1008ac00100798000000eb00700798000000eb00a8
:1008bc00000f980010002000600798001e089000a0
:1008cc000000e00005003a000000eb005007980023
:1008dc00700047002007980004003700ee009000dd
:1008ec00510798009e089000210798003e08900040
:1008fc000000e00005003a000000eb004007980003
:10090c006e0047003007980005003700ee0090009d
:10091c0041079800be0890003107980000000000c5
:10092c0000128000620060000000e000fcff3a0052
:10093c001d00370000128000620060000000e00023
:10094c0009003a002e009000104078000080fb0057
:10095c0040128800ae0090005e00900000804000c5
:10096c00200798001e0fe8000112800000022000f2
:10097c00008060000000e0000b003a004012800094
:10098c00804078003e00900001487800be00900046
:10099c004e00900000804000300798001e00900030
:1009ac000000e800100798002e0890009e007800c8
:1009bc00808f5000dfff39001000370001128000db
:1009cc0000022000008060000000e0000b003a00f4
:1009dc0040128000804078003e0090000148780072
:1009ec00be0090004e009000008040003007980040
:1009fc001e0090000000e800100798009e00900078
:100a0c002e089000808f5000ecff39001e007800fb
:100a1c000080fa00000006000400fa00204798004d
:100a2c000e80e8008e00780065ff07001e407800fd
:100a3c000080fa00000006000a00fa002007980067
:100a4c003107980042079800000000000012800057
:100a5c00620060000000e000fcff3a002e009000f5
:100a6c00104078000080fb0040128800000000005d
:100a7c000112800000022000008060000000e000f5
:100a8c00fbff3a000000eb00000f7800010037007c
:100a9c001e0fe800f06320009e007800808f50004d
:100aac00fbff3400f00f2000401288000000000013
:100abc0000128000620060000000e000fcff3a00c1
:100acc004012800020479800f00f20004012880050
:100adc000000000000128000620060000000e000d6
:100aec00fcff3a0040128000804078003e009000ed
:100afc0001487800f00f2000401288000000000030
:100b0c0000128000620060000000e000fcff3a0070
:100b1c0040128000804078004e0090000148780020
:100b2c00f00f20004012880000000000001280002e
:100b3c00620060000000e000fcff3a004012800000
:100b4c0020479800f00f20004012880000000000a1
:100b5c0000128000620060000000e000fcff3a0020
:100b6c004012800020479800f00f200040128800af
:100b7c000000000000128000620060000000e00035
:100b8c00fcff3a004012800020479800f00f200034
:100b9c00401288000000000000128000620060001b
:100bac000000e000fcff3a00401280002047980053
:100bbc000000eb00000f7800010037001e0fe8006a
:100bcc00702520009e007800808f5000fbff3400c1
:100bdc000080fa00000006000600fa0010079800da
:100bec0021079800000000000012800062006000e5
:100bfc000000e000fcff3a001e009000104078005e
:100c0c000080fb00401288000000000001128000f0
:100c1c0000022000008060000000e000fbff3a00b2
:100c2c000000eb00000f7800010037001e0fe800f9
:100c3c00f06320009e007800808f5000fbff340092
:100c4c00f00f20004012880000000000001280000d
:100c5c00620060000000e000fcff3a0040128000df
:100c6c00804078002e00900001487800f00f2000a2
:100c7c00401288000000000000128000620060003a
:100c8c000000e000fcff3a00401280008040780039
:100c9c002e00900011409800f00f200040128800a8
:100cac000000000000128000620060000000e00004
:100cbc00fcff3a0040128000804078002e0090002b
:100ccc0021409800f00f2000401288000000000026
:100cdc0000128000620060000000e000fcff3a009f
:100cec0040128000804078002e0090003140980027
:100cfc00f00f20004012880000000000001280005d
:100d0c00620060000000e000fcff3a00401280002e
:100d1c00804078002e00900041409800f00f200099
:100d2c004012880000000000001280006200600089
:100d3c000000e000fcff3a00401280008040780088
:100d4c002e00900041409800f00f200040128800c7
:100d5c000000000000128000620060000000e00053
:100d6c00fcff3a0040128000804078002e0090007a
:100d7c00514098000000eb00000f78000100370094
:100d8c001e0fe800702520009e007800808f500018
:100d9c00fbff34000080fa00000006000200fa009d
:100dac0000000000011280000002200000806000a2
:100dbc000000e000fbff3a0040128000004f78007a
:100dcc001e4078000080fa00000006000200fa00c5
:100ddc00004f7800000000000012800062006000ec
:100dec000000e000fcff3a001e80fb00401288006f
:100dfc000080fa00000006000600fa00000f7800e0
:100e0c0011079800220798002e0190009e00900078
:100e1c001e0078009bfe07000080fa000000060010
:100e2c000000fa00111280000040200000806000d9
:100e3c000000e00002003a000000eb000100370067
:100e4c00100020000080fa00000006000000fa00ec
:100e5c00001280000080fa00000006001600fa0064
:100e6c0084010700012ea900008ea800004ea900e5
:100e7c00002ea900002ea900700207000e2eef0014
:100e8c00140ea800042ea8006e00470024020700d0
:100e9c006e004700a200200003002000160207008d
:100eac00000000006e004700ea0107000004a200e9
:100ebc000004e000fbff3a000230ef0010808000dd
:100ecc00008088000000eb00500798000000eb0049
:100edc00600798000000eb00000f78006000b8007d
:100eec0010079800210798006000b80030079800a0
:100efc00410798000570ef0005d0bf0004f0b70063
:100f0c00042ea9000e2eef006e004700040207000d
:100f1c006e0047006204200003002000f601070069
:100f2c00000000006e004700ca0107000004a20088
:100f3c000004e000fbff3a00140ea900a0c8b300a7
:100f4c00a2ff070090c1b300a0ff07006e0047008e
:100f5c00f30107006e0047009201200003002000ff
:100f6c00e5010700000000006e004700b901070012
:100f7c000004a2000004e000fbff3a00140ea800dd
:100f8c000000eb00000f780019003700140ea900c8
:100f9c005200210041002100c0002100a6fe0700e4
:100fac00140ea80004d0bf000080fb008000eb00f2
:100fbc001e019000ae0190000200400083804800aa
:100fcc00100798002107980005d0bf000080fb0097
:100fdc008000eb003e019000ce019000020040002a
:100fec008380480030079800410798001e0fe800e6
:100ffc001e007800f30f5000e4ff34001e00780050
:10100c00cf80de000001be001e009000ae009000fc
:10101c00c4fd070010079800210798001e007800f7
:10102c00cf80de000001be003e009000ce0090009c
:10103c00bcfd0700300798004107980010c0b300b2
:10104c0005f0b70005d0bf0004f0b700140ea900de
:10105c005200210041002100c000210076fe070053
:10106c00140ea80041002100914078001e00900051
:10107c000040780000c050003f0007000180800055
:10108c000100400000808800510021009140780050
:10109c003e0090000040780000c050003600070071
:1010ac0011808000010040001080880000808000ca
:1010bc000000e0000700320002808000b0472100f1
:1010cc000090b900c788de004f90de000080500011
:1010dc0050079800108080000000e00007003200ec
:1010ec0012808000b04721000090b900c788de0054
:1010fc004f90de000080500060079800140ea9008d
:10110c0004d0bf0031ff07000000eb00000f780097
:10111c00010037001e0fe800d02e20009e00780042
:10112c00808f5000fbff340005d0bf0027ff070065
:10113c000000eb00000f7800010037001e0fe800e4
:10114c00d02e20009e007800808f5000fbff3400d2
:10115c00140ea8000000eb00000f7800010037000f
:10116c001e0fe800f0e124009e007800808f5000f4
:10117c00fbff3400b1ff37000200fa00004f78008b
:10118c001e4078000004e00003003d001e80fb00c0
:10119c000010b100010037001e80fb000080fa0037
:1011ac00000006000000fa00003a80000080fa00ff
:1011bc00000006000200fa00faff0700000f78009a
:1011cc001e007800240007000004e000020032003a
:1011dc0000002800710007001e0078002a0007009c
:1011ec000004e00002003200000024006b00070045
:1011fc001e007800320007000004e00002003200fc
:10120c0000202000650007001e0078003a0007004f
:10121c000004e00002003200000820005f0007001c
:10122c001e007800420007000004e00002003200bb
:10123c0000042000590007001e0078004a00070037
:10124c000004e000020032000001200053000700ff
:10125c000080fa00000006000400fa001007980055
:10126c000040eb00004f78001e0090000000e000f2
:10127c0002003d0010c0b300004f78001e40780003
:10128c000080fa00000006000400fa001007980025
:10129c000040eb00004f78009e00900000002400fe
:1012ac00008060000000e0000200320010c0b300bb
:1012bc00004f78001e4078000080fa000000060005
:1012cc000400fa00100798000040eb00004f780073
:1012dc009e00900000202000008060000000e000d4
:1012ec000200320010c0b300004f78001e4078009e
:1012fc000080fa00000006000400fa0010079800b5
:10130c000040eb00004f78009e0090000008200089
:10131c00008060000000e0000200320010c0b3004a
:10132c00004f78001e4078000080fa000000060094
:10133c000400fa00100798000040eb00004f780002
:10134c009e00900000042000008060000000e0007f
:10135c000200320010c0b300004f78001e4078002d
:10136c000080fa00000006000400fa001007980044
:10137c000040eb00004f78001e00900070006000f1
:10138c000000e0000200320010c0b300004f7800f3
:10139c001e4078000080fa00000006000200fa00ef
:1013ac00000f78009e80ea00003a80000080600008
:1013bc00003a88000080fa00000006000000fa00e5
:1013cc004027ef000080fa00000006000000fa0041
:1013dc000021ef0060ea20001008880000012800be
:1013ec00200888000068a9002068a800400321009c
:1013fc008040eb00014878000080fa0000000600f5
:10140c000200fa00000f78009e0078001108880096
:10141c00400321008040eb00014878000080fa0076
:10142c00000006000000fa00100880000080fa009e
:10143c00000006000200fa00000f78009e00780001
:10144c0001088800400321008040eb00014878002f
:10145c000080fa00000006000000fa00000880007e
:10146c000080fa00000006000000fa000080fa007c
:10147c00000006000000fa00400321008040eb0051
:10148c00014878002068a80005e1a8000080fa0057
:10149c00000006000000fa0005e1a9002068a90080
:1014ac000080fa00000006000200fa004003210050
:1014bc00104f78001e4078000004e000030032005a
:1014cc00400321008040eb00014878001e4078006a
:1014dc000080fa00000006000000fa005003210012
:1014ec00104078000080fb000080fa00000006002d
:1014fc000000fa00500321008040eb000148780006
:10150c000080fa00000006000000fa000621ef003f
:10151c000c21ef00000228008008880000e8a900d8
:10152c0020e8a800600321008040eb00014878000f
:10153c000080fa00000006000200fa00000f78009c
:10154c009e00780061088800600321008040eb0059
:10155c00014878000080fa00000006000000fa0044
:10156c00600880000080fa00000006000200fa000b
:10157c00000f78009e00780031088800600321007d
:10158c008040eb00014878000080fa000000060063
:10159c000000fa00300880000080fa00000006000d
:1015ac000000fa000080fa00000006000000fa00bb
:1015bc00600321008040eb000148780020e8a8007f
:1015cc0011e1a8000080fa00000006000000fa00fb
:1015dc0011e1a90020e8a9000080fa000000060033
:1015ec000200fa0060032100104f78001e407800c2
:1015fc000004e00003003200600321008040eb0097
:10160c00014878001e4078000080fa0000000600b7
:10161c000000fa0070032100104078000080fb00ed
:10162c000080fa00000006000000fa0070032100a0
:10163c008040eb00014878000080fa0000000600b2
:10164c000000fa0030808000418080000080fa00a9
:10165c00000006000200fa00889fbe00000f780010
:10166c00f7ff07000001be001e007800b0009000dc
:10167c0020009000800f5100818f5900080032002b
:10168c00efff07000001be001e007800b0009000c4
:10169c0020009000000051008180590006003700a6
:1016ac001e00780020049000b0049000e4ff0700b6
:1016bc000000540081805c001e01780092019000b3
:1016cc0012017800820f5000838f580006003600fc
:1016dc00dbff07001e017800200198003101980003
:1016ec0010c0b300010037000040eb004f04be00f7
:1016fc000080fa00000006000600fa00000f7800d7
:10170c0012079800230798001e0078001e01900015
:10171c00ae0190000288be000080fa0000000600b6
:10172c000200fa00000f7800c5ff07001e017800c8
:10173c0020019800310198000080fa00000006009a
:10174c000000fa0030808000418080006100400081
:10175c00e080480030808800418088000080fa00da
:10176c00000006000000fa0000102300203a880058
:10177c004827ef004e27ef00c0012000303a8800c8
:10178c006027ef006227ef006427ef006627ef0069
:10179c006c27ef003200200080072000a1092000f8
:1017ac0033742000804978008149780082497800a0
:1017bc00120020006004200071052000237420001a
:1017cc008049780081497800824978000000000047
:1017dc00103a8000610060000000e000fcff3a005d
:1017ec0000000000113a8000000220000080600020
:1017fc000000e000fbff32000080fa000000060051
:10180c000200fa00000f780021028000200f200057
:10181c00008060001e007000200288000080fa002a
:10182c00000006000000fa00c3e8a8000000000059
:10183c00000000000080fa00000006000000fa0022
:10184c000a0007004f000700c6ff0700d4fb070083
:10185c002dff0700ddfe0700f2ff0700000220004d
:10186c00e7ff07000080fa00000006000000fa0005
:10187c00042eef00142eef00242eef00f078200041
:10188c0000708800e0ff2f0080708800f03f20007f
:10189c00007188000c2eef001c2eef002c2eef0098
:1018ac000a2eef001a2eef002a2eef00062eef0064
:1018bc00162eef00262eef003000200070708800ee
:1018cc0020102000f07088007000200070718800db
:0818dc000080fa000000060084
:020000040000fa
:1018e4000e10000020000000800000000a1000001c
:1018f4000200000082000000ffff0000341000001e
:101904000200000080000000361000000200000009
:10191400800000002e10000006000000800000007f
:101924000c100000020000008200000050000000c3
:1019340000100000060000008000000006100000f7
:0c19440004000000800000000000000013
:020000040000fa
:101950000000fa0086ff07000080fa000000060081
:101960000000fa00003a80000080fa000000060043
:101970000000fa0012fe07000080fa0000000600d6
:101980000000fa0090fe07000080fa000000060048
:101990000000fa0011428000f0ff28000080600083
:1019a00000c0a0001042880001428000f0ff280023
:1019b0000080600000c0a000004288000080fa00a3
:1019c00000000600000f78009e007800518088001b
:1019d000ffff37000000fa00e000210080077800d8
:1019e00060022100000188000080fa00000006006b
:020000040000fa
:02000004000af0
:04afe000cfff00009f
:020000040000fa
:02000004000af0
:04afe400ffff00006b
:020000040000fa
:02000004000af0
:04afe8007fff0000e7
:020000040000fa
:02000004000af0
:04afec007dff0000e5
:020000040000fa
:02000004000af0
:04aff000f8ff000066
:020000040000fa
:02000004000af0
:04aff400ffff00005b
:00000001FF
